:020000040040BA
:10000000589E0020513240004D3240004D32400099
:100010004D3240004D3240004D32400000000000A3
:100020000000000000000000000000004D32400011
:100030004D324000000000004D3240004D32400083
:100040004D324000854040004D324000FD394000B7
:100050004D3240004D3240004D3240004D324000A4
:100060004D32400075144000891440009D1440003A
:10007000B1144000C51440004D3240004D324000E4
:100080004D3240004D3240004D3240004D32400074
:100090004D3240004D3240004D3240004D32400064
:1000A0004D3240004D3240004D3240004D32400054
:1000B0004D3240004D324000011340001513400006
:1000C0004D3240004D3240004D324000D51F4000BF
:1000D000413940004D3240004D3240004D32400029
:1000E0004D3240004D3240004D3240004D32400014
:1000F0004D3240004D32400010B5054C237833B9E5
:10010000044B13B10448AFF300800123237010BDEA
:10011000F80B00200000000010A640000C4B43B17B
:100120000C480D4910B5AFF300800C48036823B9A3
:1001300010BD0A48036833B97047094B002BF7D04C
:10014000BDE810401847064B002BF5D0184700BFFC
:100150000000000010A64000FC0B002010A640008C
:100160000000000010B520200A4B98470A4CA04719
:100170000028FCD0094B9847094A0A4B9A620A4C5E
:10018000A0470028FCD00320084B9847084B98470D
:1001900010BD00BF3D154000891540009915400075
:1001A000013F0F2000040E40A915400061164000D9
:1001B0007116400010B50E480E4B984720200E4B8C
:1001C00098470E4CA0470028FCD00D4B98470D4A8D
:1001D0000D4B9A620D4CA0470028FCD010200C4B10
:1001E00098470C4B98470C48024B984710BD00BFEE
:1001F000000E2707253440003D15400089154000BA
:1002000099154000013F0F2000040E40A915400041
:10021000D91440001933400000D8B8050E49002316
:100220000B700E4A13800E4AA120107020205070CF
:10023000538093800220D08013810A4A4FF4E1302A
:10024000106013715371082393710B780133DBB283
:100250000B700120704700BF1F0C0020B40C002061
:100260004C0D0020180C0020024A1378013BDBB231
:10027000137070471F0C0020044A1378013BDBB257
:10028000137013780022024B1A707047200C002064
:10029000160C002000207047002070471D4B1B7873
:1002A00013F0800F05D103F06003202B18D000203D
:1002B000704703F06003202B01D000207047154BDE
:1002C0005B78212B24D1134BDB88072B01D0002036
:1002D0007047104B104A9A6007229A81012070479C
:1002E0000C4B5878202804D0222814BF002001206D
:1002F0007047084BDB88072B01D000207047054B67
:10030000064A1A61044A9A6007229A8101207047BE
:1003100000207047CC6D0020180C00202103400005
:1003200070470000444B1B7803B1704770B584B030
:10033000424B9847002841D0414B1C88414B98477D
:10034000844276D0EFF31083B3FA83F35B0903930F
:1003500072B6BFF35F8F00223B4B1A70039D3B4B7D
:100360001C78E4B23A4B33F81430002B2DD0002225
:10037000384B1A80384B1B78002B42D1B4FA84F3E7
:100380005B09324A137001222B4B1A7025B12E4B98
:100390001A70BFF35F8F62B626462D4B33F81430C8
:1003A000402B14BF0125002534D0244B984700284A
:1003B0002BD0244B9847224B18802EE0204B1C88D2
:1003C000264B98478442BDD133E0224A138801333B
:1003D00013801A4B984718B91E4B1B88632B08D9FA
:1003E000164B98470028C2D01A4B1B88B3F5487F9C
:1003F000BDD2F5B10122144B1A70BFF35F8F62B604
:1004000017E0B4FA84F46409BDE7144B98470C4B29
:10041000188002E000220A4B1A800D4B33F8163088
:100420000F4A00920F4A02EB8412294681200E4C9B
:10043000A04704B070BD00BF480D0020352A400021
:10044000440D0020A12A400034010020400D00206E
:100450003C0D0020140C0020B80C0020912A400014
:100460006D044000BC0C0020FD2D400000B1704721
:1004700008B5074B1B78B3FA83F35B09054A22F8EA
:100480001300054B1870054B1870054B984708BDB5
:10049000400D00203C0D0020B80C0020480D00202D
:1004A0002503400008B50020014B984708BD00BF58
:1004B0002503400082B0EFF31083B3FA83F35B09A6
:1004C000019372B6BFF35F8F00220B4B1A70019934
:1004D0000A4B188883B20A4A1278D2B2094830F817
:1004E000120080B2C01A29B10122034B1A70BFF367
:1004F0005F8F62B602B0704734010020AC0C002060
:10050000A80C0020A40C002008B5034B984700302D
:1005100018BF012008BD00BFB504400010B584B06D
:10052000EFF31083B3FA83F35B09039372B6BFF35F
:100530005F8F00221E4B1A70039B1E4A14781E4ABE
:1005400012784AB9E4B21D4A118889B21C4A32F8BD
:10055000142092B2914209D23BB30122144B1A707B
:10056000BFF35F8F62B6002004B010BD0021134AB4
:100570001180B4FA84F252090E490A7001210E4A20
:10058000117023B10A4B1970BFF35F8F62B6002060
:100590000C4B98470C4B009340230C4A02EB8412FF
:1005A000012102200A4CA047DEE70020DCE700BF63
:1005B00034010020A80C0020B00C0020AC0C00205E
:1005C000A40C00200905400069064000240C00200E
:1005D000FD2D400010B50024164B1C70164B1C70EE
:1005E000164B1C70164B1C70164B1C805C80164BF7
:1005F0001C802046154B9847154B1C70154B1C70E2
:10060000154B1C805C80154B1C802046144B984772
:10061000014640B1074A13780133DBB213701378F7
:10062000DBB2012B01D0084610BD01220D4B1A7020
:10063000F9E700BF200C0020480D0020B80C002076
:10064000400D00203C0D0020440D002025034000FB
:10065000B00C0020A80C0020A40C0020AC0C002042
:100660001D054000160C0020E8B910B582B01046F8
:100670000D4B1C78B4FA84F4640951B189B20B4B68
:1006800023F8141000200A4B18700A4B984702B048
:1006900010BD094B00934023084A02EB841201214C
:1006A000074CA047F3E77047A80C0020A40C0020DB
:1006B000B00C00201D05400069064000240C0020FD
:1006C000FD2D400008B50020014B984708BD00BF34
:1006D000090540002DE9F04782B0254B93F80680CC
:1006E000B8F1090F14BF4FF000084FF001084FF0A8
:1006F000000A204CD14657461F4D204E04E08B4245
:1007000023D31F4B1B78D3B1EFF31083B3FA83F3DA
:100710005B09019372B6BFF35F8F277001982B8836
:100720009BB23278D2B2174931F8121089B2002840
:10073000E5D001202070BFF35F8F62B6DFE74FF096
:10074000000A504602B0BDE8F0870F4901EB821263
:10075000D25C42EA0A0A01339BB22B8048460B4B1B
:100760009847B8F1000FECD04FEA0A2AC846CBE709
:10077000180C002034010020AC0C0020A80C002034
:10078000160C0020A40C0020240C00201D054000A5
:1007900008B50020014B984708BD00BFD5064000B2
:1007A00082B0EFF31083B3FA83F35B09019372B65F
:1007B000BFF35F8F0022144B1A70019A134B1B7802
:1007C000DBB2134931F8130040280AD0C0F14000D1
:1007D0002AB101220C4B1A70BFF35F8F62B602B0D0
:1007E00070470C4909780029F0D10B490978002994
:1007F000ECD1012008490870B3FA83F35B0903497F
:100800000B700020E2E700BF34010020400D002003
:100810003C0D0020480D0020B80C002008B5034B0B
:100820009847003018BF012008BD00BFA107400055
:100830002DE9F04182B00C461D4B9D79092D14BF66
:10084000002501251B4E1C4FDFF87C8022E0EFF3D2
:100850001083B3FA83F35B09019372B6BFF35F8F22
:1008600000233B70019898F80030DBB2134A32F84D
:10087000131001F1010E22F813E0114A02EB831369
:100880005C5420B101233B70BFF35F8F62B665B14A
:10089000241200250020B0470028D8D1094B1B782E
:1008A000002BF7D102B0BDE8F0810120FAE700BFCC
:1008B000180C00201D084000340100203C0D0020D1
:1008C000BC0C0020160C0020400D002008B501468D
:1008D0000020014B984708BD31084000104B1B68B1
:1008E0001A6853881A4403781844904211D2437806
:1008F000042B10D08B4209D003781844904206D2C2
:100900004378042B09D08B42F6D107E070470020D2
:10091000704700207047002070470020704700BFDC
:10092000640D002008B5034B987800F07F00024B5F
:10093000984708BDCC6D0020392A4000194B1B7820
:100940004BB3194B1B681B681A79824225D970B4C6
:10095000164A13605C881C44A34220D2002501265D
:1009600007E0124A13600FE01A7813443546A34299
:100970000CD25A78042AF7D19A788242F4D1DA78E4
:100980008A42F1D1002DECD1012002E0074A136028
:10099000002070BC70470020704700207047002086
:1009A000F7E700BF600D0020640D0020680D0020F7
:1009B0002DE9F84304460021134B9847804610B9AF
:1009C0004046BDE8F883114B1B685B6853F82490E0
:1009D000D9F80C309847014620460B4B9847804683
:1009E0000028EDD00A4B1C6805260A4D0A4F3146F7
:1009F0002046A847044610B18078B847F7E7D9F8F1
:100A000004309847DCE700BF3D094000640D00203A
:100A1000680D0020DD084000A92B40002DE9F041C1
:100A20008046104B98470346C8B10F4B1C680526FB
:100A30000E4D0F4F31462046A847044638B18288F4
:100A4000C1788078B84703460028F3D107E0094B06
:100A50001B685B6853F828301B68984703461846A4
:100A6000BDE8F0813D094000680D0020DD08400030
:100A7000B12A4000640D002008B5014B984708BD1D
:100A80005929400070B50D4B1B7883B10C4B1B6886
:100A90001B681B795BB100240A4E094D2046B04704
:100AA0000134E4B22B681B681B79A342F6D80022FC
:100AB000024B1A700122044B1A8070BD600D002099
:100AC000640D0020B1094000560D002038B50D4BD3
:100AD0001B78B3B10C4B1B681A6812798AB10024D9
:100AE000094D06E00134E4B22B681A681279A2427B
:100AF00007D95B6853F824301B69002BF2D0984764
:100B0000F0E738BD600D0020640D0020F8B5964B6D
:100B100000229A811A615A611B7813F0800F14D158
:100B200013F0600F00F0B8808F4B1B7803F01F03A9
:100B3000012B00F08B818C4B1B7803F01F03022BE1
:100B400000F0AC8100231846F8BD874AD288002AFD
:100B500000F0CD8113F0600FE6D113F01F0306D132
:100B600081494978062913D0082958D049B1012B69
:100B70005CD0022BD8D17C4B5B78002B7ED000233D
:100B800060E1022AD0D102217848794B98479FE052
:100B9000754B5A88130A013B0E2B00F25081DFE897
:100BA00013F00F001C0036004E014E014E014E01A5
:100BB0004E014E014E014E014E014E014E012E00DE
:100BC0006C4B186801786A4B9847674BDA889B89A9
:100BD00093427DD9644B9A817AE0D2B2654B1B680F
:100BE0005B7C9342A0D9634B5B6853F83200418829
:100BF0005F4B98475C4B9B6802225A70E5E75D4B60
:100C00009868002890D04188594B9847DDE712F04A
:100C1000FF0F89D104215848554B9847D5E7012A41
:100C200082D101215548524B984751E04E494978AD
:100C30000A299ED1012A7FF477AF504B1B78002BF5
:100C40003FF472AF484B1C794D4B1D682B681B79E4
:100C5000A3427FF669AF002120464A4B98470028FF
:100C60003FF462AF6B6853F82430DB689847464B1B
:100C70001870012118463E4B984729E0022A7FF45C
:100C800053AF394B1879414B9847414B188002219B
:100C90001846374B98471BE013F01F0340F0828043
:100CA000314A5278013A082A7CD8DFE812F0130062
:100CB0007B00CA007B0009007B007B007B002300D7
:100CC000294BDB88002B7FF42FAF324A264B1A6169
:100CD000012338E7244BDB88002B7FF425AF224B20
:100CE0005B88012B7FF420AF204A138823F0020396
:100CF0001380EDE71C4BDB88002B7FF415AF264BF0
:100D0000984700283FF410AF174B9A78194B1B688F
:100D10005B7C9A423FF708AF204B9847124B9B7879
:100D2000164A1370002BD3D003F10053013B114A34
:100D3000526802EBC3001249086052F833301B7945
:100D4000002BC5D000242646154D0F4631462046BF
:100D5000A84700283FF4E8AE0134E4B23B681B68C2
:100D60001B79A342F2D8B3E7CC6D0020560D0020CA
:100D7000A52A4000BC00002030010020600D0020AA
:100D8000640D00203D0940005C0D0020012C400056
:100D9000580D002025094000752A4000850A4000B2
:100DA0001D0A4000012B0AD0022B7FF4BDAE524B2E
:100DB0005B78012B20D0032B2ED0002342E04E4A3B
:100DC00052780B2AF0D14C4BDB88002B7FF4ACAE71
:100DD0004A4B1B78002B3FF4A7AE474B1C795D882C
:100DE0002046474B984700283FF49EAEE9B2204684
:100DF000444B9847034625E03F4BDB88002B7FF4AC
:100E000093AE3D4B5B88002B7FF48EAE3A4B187946
:100E10003D4B9847034615E0374BDB88002B7FF4AA
:100E200083AE354B5B88002B7FF47EAE324C20794D
:100E3000364B98472079364B9847034602E000230B
:100E400000E00023002B7FF47EAE6DE62B4B1B7879
:100E5000002B4ED0284B1C792E4B1D682B681B791C
:100E6000A34201D800236EE6002120462A4B984772
:100E700000283FF460AE6B6853F82450EB68984745
:100E800001462046244B984700283FF454AEAB68F7
:100E90009847034600287FF456AE4CE6174B1B7864
:100EA0000BB31C4B1A6813681B79F3B100241A4E5C
:100EB000184F536853F82450EB6898470146204672
:100EC000B047034600283FF43EAEAB689847034660
:100ED00000287FF438AE0134E4B23A681168097929
:100EE000A142E6D82FE600232DE600232BE60023BF
:100EF00029E6002327E600BFCC6D0020600D00200E
:100F0000B10940001D0A4000252D4000792F400006
:100F1000412C4000640D00203D09400010B54FF405
:100F20000042464B5A600920454CA0470A20A04782
:100F30000B20A0470C20A0470D20A047414B4FF4A9
:100F400000121A66C3F890205A655A62C3F88020CE
:100F5000196F21F400111967596F21F400115967B5
:100F60005A60A3F5C0634FF480521A66C3F890200C
:100F70005A655A62C3F88020196F21F480511967AD
:100F8000596F21F4805159675A604FF400521A6624
:100F9000C3F890205A655A62C3F88020196F21F473
:100FA00000511967596F21F4005159675A604FF485
:100FB00080421A66C3F890205A655A62C3F88020AE
:100FC000196F21F480411967596F21F480415967E5
:100FD0005A604FF400621A66C3F890205A655A624C
:100FE000C3F88020196F21F400611967596F21F44B
:100FF000006159675A6008221A66C3F890205A6542
:101000005A62C3F88020196F21F008011967596FDF
:1010100021F0080159675A6010221A66C3F890201F
:101020005A655A62C3F88020196F21F010011967C0
:10103000596F21F0100159675A6010BD50180E40C9
:10104000B915400000140E4008B5C0EBC00001EB1C
:101050004001034B53F8213003B1984708BD00BF4E
:10106000586D00202DE9F04383B0026BC36A134032
:1010700001931F4FB84214BF002701270125002408
:101080002E46DFF870804FF0060914E0019B13F440
:10109000004F0ED049463846C0470AE00B2C19D8FD
:1010A000019A04F1110306FA03F313420FD10D2D37
:1010B0001AD8013401352146062CEFD8E6D0019B21
:1010C00006FA04F21A42F2D03846C047EFE7384633
:1010D000C047ECE7019A04F1120306FA03F3134246
:1010E000E5D03846C047E2E703B0BDE8F08300BF73
:1010F00000400B404910400030B4046E01238B4087
:1011000024EA03041578002D08BF00232343036657
:10111000446D4B000321994024EA01045178994021
:101120002143416530BC704700220260084B436098
:10113000084B83604FF48023C36002610223037570
:10114000012343758375C2750376437683767047B2
:1011500000D8B805808D5B00002303700123437025
:1011600070470000036B13F0807F01D01920704797
:1011700070B401230360CB7D002B14BF4FF00045FA
:1011800000258B7D002B14BF4FF4000400240B7D41
:101190001B0603F070630A69CE68324313434A7D2D
:1011A000120702F0405213438A6856004A68B2FBA5
:1011B000F6F2013A120292B213432B4323434360E7
:1011C0000B7E002B14BF4FF0807300230A6813437B
:1011D0004A7E002A14BF4FF000720022134383603E
:1011E0008B7E1B0203F44073C0F894300E4B984280
:1011F00005D00E4B98420CD0002070BC70470C4BB1
:1012000003F13801002243F8042F8B42FBD1002068
:10121000F3E7084B03F13801002243F8042B8B421B
:10122000FBD10020E9E700BF00000B4000400B406D
:10123000546D0020906D00200C4B994207D0062978
:101240000BD806D0012303FA01F1416270474362D3
:1012500070474FF40043436270470B2994BF11312C
:101260001231012303FA01F1416270473F8000DF30
:1012700038B5114CA0420CBF0E2400240C440F4D75
:1012800045F824200AD10E4A4FF00044C2F88041AC
:101290001B01DBB282F81F33146009E0084A4FF0EB
:1012A0008044C2F880411B01DBB282F81E33146017
:1012B000044B984738BD00BF00400B40586D0020DC
:1012C00000E100E0391240000C4B994207D006299A
:1012D0000BD806D0012303FA01F1816270478362C3
:1012E00070474FF40043836270470B2994BF11315C
:1012F0001231012303FA01F1816270473F8000DF60
:1013000008B50248024B984708BD00BF00000B40DB
:101310006510400008B50248024B984708BD00BF61
:1013200000400B406510400000B583B0134B98425D
:101330000CBF1F201E20124B9847124B9B78FF2B8F
:101340001AD0EFF31083B3FA83F35B09019372B6FB
:10135000BFF35F8F00220C4B1A700199094A9378F2
:101360000133937029B10122074B1A70BFF35F8FCD
:1013700062B603B05DF804FBFEE700BF00400B401F
:10138000B9154000506D00203401002008B512024C
:1013900002F4706241F080611143024B98470020D3
:1013A00008BD00BF75000020A1F10E03012B02D87B
:1013B0004FF0FF30704710B582B0EFF31083B3FAEF
:1013C00083F35B09019372B6BFF35F8F00240B4B6D
:1013D0001C70019C120222F07F4222F0FF0242F0B8
:1013E000B442C9B21143064B98472CB10122034BBA
:1013F0001A70BFF35F8F62B602B010BD34010020D7
:1014000079000020C06C7047806C70472DE9F8436C
:1014100081460F46124B984705464846114B984760
:10142000054013D0104C04F1600603E0B4420DD027
:1014300010345DB12068B842F8D161682942F5D016
:10144000E3689847636825EA0305EFE7074B1B68E5
:1014500023B1074B1B680BB148469847BDE8F8839A
:1014600005144000091440006C0D0020C86D0020D8
:10147000DC0D002008B509210148024B984708BD42
:10148000000E0E400D14400008B50A210148024B21
:10149000984708BD00100E400D14400008B50B2100
:1014A0000148024B984708BD00120E400D14400041
:1014B00008B50C210148024B984708BD00140E40A6
:1014C0000D14400008B50D210148024B984708BD96
:1014D00000160E400D144000174A136B23F07003E2
:1014E00018431063936E13F0080F0AD14FF4006392
:1014F00011498A6E12F0080F03D1013BF9D1012086
:1015000070470D4A136B23F0030343F00203136388
:10151000936E13F0080F0AD14FF4006306498A6EE8
:1015200012F0080F05D1013BF9D1012070470020CE
:1015300070470020704700BF00040E4011490A6A3E
:1015400042F45C1242F008020A620A46936E13F4F7
:10155000003FFBD00B4A136A23F45C1323F07003A3
:1015600043F45C1318431062936E13F4003FFBD0F6
:10157000044A136A23F09B7323F4803343F45C130F
:101580001362704700040E40024B986E00F48030E6
:10159000704700BF00040E404FF00052014B9A62AA
:1015A000704700BF00040E40024B986E00F002002E
:1015B000704700BF00040E402F281ED81F280CD8EB
:1015C000114B9A6901238340934318D0012303FAF6
:1015D00000F00D4B18610020704720380A4BD3F8FB
:1015E00008210123834093430BD0012303FA00F029
:1015F000054BC3F800010020704701207047002010
:1016000070470020704700BF00040E402F2822D8EA
:101610001F280ED8114B9A6901238340934301D0B0
:1016200000207047012303FA00F00C4B58610020A2
:1016300070472038094BD3F8082101238340934396
:1016400001D000207047012303FA00F0034BC3F8D8
:101650000401002070470120704700BF00040E40C5
:10166000000200F47060014B9863704700040E4064
:101670008022014B1A60704700040E40034B1A6F22
:10168000C0F3120010431867704700BF00040E40FB
:10169000024B187880F00100704700BFE00D002079
:1016A000F0B48CB007460E4601AC114D0FCD0FC4FF
:1016B0000FCD0FC495E8070084E8070001AA0023B6
:1016C00052F8040BB6FBF0F0B0FBF7F0B0F5807FFA
:1016D00007D901330B2BF3D14FF6FF700CB0F0BCE0
:1016E00070470A2B94BF40EA03204FF6FF70F5E7DE
:1016F000A49B400070B506460D460C6844B189684D
:1017000020460C4B984704464FF6FF7398420CD086
:10171000686840B1A968074B98474FF6FF73984235
:1017200005D044EA004434600024204670BD0446DD
:10173000FBE700BFA116400070B40A684B6803F0D5
:101740000F038C8A23430C8923438C7A43EA442376
:101750008C7D43EA0443CC7D43EA44430C7E43EA58
:10176000844300EB4214C4F80032CB68C4F804325E
:101770000B69C4F80C328B7D3BB18C8B4B8B43EAED
:10178000044300EB4214C4F81832856C4FF0011387
:101790009340DB431D40CC7F04FA02F68C7F9440DB
:1017A00044EA06442C438464446C234091F821406D
:1017B00004FA02F591F82040944044EA054423439A
:1017C00043640123934091F82240002C43D0046AE3
:1017D0001C43046291F82440022C41D0D0F8C05040
:1017E000DC432540C0F8C05091F82450012D07BFBC
:1017F000846E1C43856E2C40846691F82540022C33
:1018000034D0D0F8C0501B04DC432540C0F8C05091
:1018100091F82550012D30D0836E1C408466D20093
:10182000C46EFF23934024EA030491F8233003FAA3
:1018300002F22243C2660B6853B991F82C30012B97
:101840008B6A23F07F4308BF43F08073C0F8A03059
:10185000002070BC7047046A24EA03040462B9E7FC
:10186000D0F8C0401C43C0F8C040C6E7D0F8C04024
:1018700044EA0343C0F8C030D1E7846E2343836653
:10188000CDE7012303FA01F141607047012303FA18
:1018900001F181607047C06970471032012303FA7B
:1018A00002F203FA01F10A4302617047836823F0F0
:1018B0007F4323F0010343F025438360704783682F
:1018C00023F07F4343F0254343F0100383607047C8
:1018D00040687047034B1B6843F480231943016041
:1018E00000207047E40D00200268034B1B68194379
:1018F00011430160704700BFE40D0020036823EA34
:101900000101024B1B68194301607047E40D002080
:10191000826883689A4203D0826883689342FBD1CD
:1019200018467047C068704708B51320014B9847A8
:1019300008BD00BFB9154000436823F4702343601D
:101940004368090401F4702119434160704730B4C1
:1019500043F69924056915F0020F03D1013CF9D132
:1019600001200CE0446814F0020F06D0120402F4C7
:10197000702211430BB141F08071C160002030BC76
:10198000704732B900EB8100036B23F0010303635E
:10199000704700EB8100036B43F001030363704762
:1019A00032B900EB8100036B23F00203036370473D
:1019B00000EB8100036B43F002030363704700EB0D
:1019C00081010B6B23F0F0030B630B6B1A430A636B
:1019D00070477AB110B4144600EB81010B6B23F40D
:1019E0007F430B630A6B42EA04220A6300205DF81E
:1019F000044B70474FF0FF30704710B400EB81018B
:101A0000086B80B208630C6B44EA036343EA024349
:101A10000B635DF8044B704782B0014628BB244B32
:101A20001B781BB9224B197002B07047214B9B7871
:101A300003B9FEE7EFF31083B3FA83F35B09009376
:101A400072B6BFF35F8F00221B4B1A700098194AC1
:101A50009378013B93700028E4D00122164B1A7052
:101A6000BFF35F8F62B6DDE7FEE7114B1B78002BFB
:101A7000D8D1104B9B78FF2BF6D0EFF31083B3FA3D
:101A800083F35B09019372B6BFF35F8F00220A4BA9
:101A90001A700198074A9378013393700028C1D0D7
:101AA0000122054B1A70BFF35F8F62B6BAE700BF21
:101AB000E90D0020506D002034010020034A00236E
:101AC000136153619381024A13707047CC6D0020FB
:101AD000EE0D002082B005220A4B1A700A4A136BE1
:101AE0000193019B43F04F030193019B43F02003BB
:101AF0000193019B1363136B13F0200FFBD002B013
:101B0000704700BFEE0D00200040084082B0032265
:101B10000A4B1A700A4A136B0193019B43F04F035F
:101B20000193019B43F010030193019B1363136B1B
:101B300013F0100FFBD002B0704700BFEE0D002075
:101B40000040084008B5024B1B6903B1984708BD27
:101B5000CC6D002030B587B0634B1B78032B29D0A8
:101B6000624B1B88624A9489E41AA4B2002C44D1C7
:101B7000604A11880B449BB213805D4AD2889A4216
:101B800003D05D4B1B78002B2BD00422564B1A70D0
:101B90005A4A136B0193019B43F04F030193019B3E
:101BA00023F001030193019B1363136B13F0010FE7
:101BB000FBD114E0514A136B0093009B43F04F0399
:101BC0000093009B23F001030093009B1363136BAE
:101BD00013F0010FFBD14A4B98474A4B984707B087
:101BE00030BD434B5B69002B5DD0984700285AD02D
:101BF00000223E4B1A803E4B9C893F2C53D9002239
:101C00003D4B1A7040243A4B9968384B1888EFF3D3
:101C10001083B3FA83F35B09059372B6BFF35F8F4A
:101C20000022394B1A70059D344B1B6B13F0020FC9
:101C30003DD14CB101440A46304812F8013B0365DE
:101C4000531ADBB2A342F8D3284B1A8814441C80E1
:101C50002A4A136B0393039B43F04F030393039BA5
:101C600043F010030393039B1363136B13F0100FE4
:101C7000FBD0224A136B0493049B43F04F0304935D
:101C8000049B23F001030493049B1363136B13F071
:101C9000010FFBD1002DA2D001221B4B1A70BFF304
:101CA0005F8F62B69BE70122134B1A70ABE72DB131
:101CB0000122154B1A70BFF35F8F62B604220A4BE4
:101CC0001A700E4A136B0293029B43F04F03029368
:101CD000029B23F001030293029B1363136B13F027
:101CE000010FFBD17BE700BFEE0D0020EA0D0020C5
:101CF000CC6D0020EC0D0020E80D002000400840D5
:101D0000451B4000BD1A40003401002038B5437C1B
:101D100013F0100F16D00D46437C6FF30413437479
:101D200004687CB102F10C03074951F8233013F425
:101D3000806F18BF42F080028168012D14BF00201F
:101D40000120A04738BD00BF0040084030B482B039
:101D5000411E830003F1402303F500231A6B1C6B23
:101D600012F0020F32D014F0400F08D101EB8102C3
:101D70002A4C04EB8202547C6FF38304547401EB0D
:101D80008102264C04EB8202527C12F00C0F28D107
:101D90001A6B0092009A42F04F020092009A22F0D1
:101DA00002020092009A1A631A6B12F0020FFBD122
:101DB00080B303282ED001EB8101184B03EB810384
:101DC0005A7C012161F383025A7423E001EB810202
:101DD000124C04EB8202547C012565F38304547495
:101DE000CDE71A6B0192019A42F04F020192019ADB
:101DF00022F040020192019A1A631A6B12F0400F0E
:101E0000FBD101EB8101054B03EB81014B7C6FF3AF
:101E100083034B7402B030BC704700BFF00D00204C
:101E20002DE9F04383B088468146461E06EB8602C4
:101E3000664B03EB820393F811C0CCF3810C0028AE
:101E400000F0B78003280CBF01230223634540F351
:101E5000B28006EB86035D4A02EB8303DA689B6877
:101E60009A4209D306EB8601584C04EB8101497C68
:101E700011F0400F00F0A38006EB8605534901EBFB
:101E800085056C681444991A2B8AC3F30907B94273
:101E90003ABF0F464FF0010E4FF0000E06EB8603DF
:101EA0004A4901EB83033A44DA60072F2BD904F146
:101EB00008033D46820002F1402202F5002213F899
:101EC000081C116513F8071C116513F8061C116531
:101ED00013F8051C116513F8041C116513F8031C95
:101EE000116513F8021C116513F8011C1165083DFA
:101EF0000833072DE3D8A7F1080323F007030833BD
:101F00001C4407F007074FB1E319314909F11409DF
:101F100014F8012B41F829209C42F9D106EB8603E5
:101F20002A4A02EB83030CF1010C5A7C6CF3830206
:101F30005A74B8F1000F14D0800000F1402000F571
:101F40000020036B0193019B43F04F030193019B1E
:101F500043F010030193019B0363036B13F0100F15
:101F6000FBD0BEF1000F08D006EB8603174A02EB48
:101F700083035A7C6FF386125A7406EB8603134A66
:101F800002EB8303DA689B689A421AD306EB860356
:101F90000E4A02EB83035B7C13F0400F13D106EB78
:101FA000860602EB8606737C43F080037374002080
:101FB00002E001234AE7012003B0BDE8F0830020DE
:101FC000FAE70120F8E70120F6E700BFF00D002056
:101FD000004008402DE9F04F9BB0864B984720B950
:101FE000854BDB6913F4807F3BD02320834B9847DC
:101FF000814B9B6913F4006F04D07F4BDB6913F4B2
:10200000006F37D17C4BDB6913F0010F00F0B68114
:10201000794B1B6B13F0040F33D1774B1B6B13F011
:10202000010F40F0C380744B1B6B13F0020F40F0A4
:10203000C080714B1B6B13F0080F00F09F816E4A3C
:10204000136B0093009B43F04F030093009B23F01E
:1020500008030093009B1363136B13F0080FFBD16D
:1020600005E072B6BFF35F8F0022654B1A701BB09C
:10207000BDE8F08F4FF400625F4B1A62614B9847E6
:10208000F5E7614B1B78CBB95B4B1B6BC3F30A4382
:10209000082B18D0584A136B0193019B43F04F0350
:1020A0000193019B23F004030193019B1363136BC2
:1020B00013F0040FFBD1554B9847D8E7544B984782
:1020C000544B9847E0E7544B03F108004A490A6D26
:1020D00003F8012F8342FAD1504B984798B9464AEA
:1020E000136B0293029B43F04F030293029B23F076
:1020F00004030293029B1363136B13F0040FFBD1D1
:10210000424B9847B3E7464B93F90030002B1DDB59
:10211000394A136B0593059B43F04F030593059BC9
:1021200023F004030593059B1363136B13F0040F53
:10213000FBD13B4BDB88002B35D00023394A138081
:10214000394A13800122304B1A7090E72A4A136BE8
:102150000393039B43F04F030393039B43F08003DC
:102160000393039B1363136B13F0800FFBD0224A7E
:10217000136B0493049B43F04F030493049B23F0DD
:1021800004030493049B1363136B13F0040FFBD13C
:102190000023244A1380244A138002221A4B1A7007
:1021A000224B984763E7224B984760E71F4B9847BD
:1021B0005DE7154B1B78012B3CD0022B04D0042B80
:1021C00002D0124B984701E0114B98470A4A136B13
:1021D0000693069B43F04F030693069B23F00203EE
:1021E0000693069B1363136B13F0020FFBD1094B8D
:1021F00098473CE79116400000400840B915400060
:1022000034010020CD0A4000EE0D0020D51A400018
:10221000451B4000BD1A4000CB6D00200D0B400057
:10222000CC6D0020EC0D0020EA0D0020551B400075
:102230000D1B4000934B196BC1F30A41924B9B89D4
:10224000924A15886A189342BCBF5B1B99B28E4BA9
:102250009868284471B102468A4C236D02F8013B0C
:10226000131ADBB28B42F8D30D44ADB2874B1D80FD
:1022700040291AD0844B9D815B6913B1984700288F
:1022800030D0804A136B0893089B43F04F030893A8
:10229000089B23F002030893089B1363136B13F04E
:1022A000020FFBD17A4B9847E1E6774BDA88794BFE
:1022B0001B882B449A42DDDD734B9B89AB4225D0B2
:1022C000704A136B0B930B9B43F04F030B930B9BC9
:1022D00023F002030B930B9B1363136B13F0020F9A
:1022E000FBD1C4E66C4B9847664A136B0793079B78
:1022F00043F04F030793079B23F002030793079BC9
:102300001363136B13F0020FFBD1B0E65E4B5B69F6
:1023100053B19847E8B15F495C4A0B881088034481
:102320000B8000231380CBE75B4B9847554A136B18
:102330000993099B43F04F030993099B23F0020380
:102340000993099B136313461A6B12F0020FFBD11A
:102350008DE6514B98474B4A136B0A930A9B43F007
:102360004F030A930A9B23F002030A930A9B136309
:1023700013461A6B12F0020FFBD178E6474A01238D
:10238000DFF800E118467FE107EB8702434B03EBE0
:102390008203B3F810A0CAF3090A236BC3F30A49F6
:1023A000B9F1000F00F0DF813C4B03EB8203D3F85F
:1023B00008E0DA68AEEB02005968484540F2C78190
:1023C00007EB8700354B03EB800302EB0900D86075
:1023D00048464FF0000B11440B46226D03F8012BC9
:1023E0005A1A8242F9D330462D4B9847BBF1000F61
:1023F00000F0BC81236B13F0200F7FF438AE214B2B
:102400005D61264BBA00D11903EB8101CB688B606B
:10241000324600214046234B984728E607EB8702C7
:102420001E4B03EB8202537CC3F38101033161F342
:1024300083035374537C13F0200F5FD013F00C0F01
:1024400032D0236B0C930C9B43F04F030C930C9BEB
:1024500043F010030C930C9B2363236B13F0100FBA
:10246000FBD0236B0D930D9B43F04F030D930D9BFE
:1024700023F001030D930D9B2363236B13F0010FD6
:10248000FBD1F4E500400840CC6D0020EA0D0020AF
:102490000D1B4000EC0D0020D51A4000F00D00206F
:1024A0004D1D40000D1D4000236B0E930E9B43F00D
:1024B0004F030E930E9B23F001030E930E9B236399
:1024C000236B13F0010FFBD1236B0F930F9B43F092
:1024D0004F030F930F9B43F020030F930F9B236336
:1024E000236B13F0200FFBD007EB8707A14B03EB07
:1024F00087035A7C6FF345125A74B8E513F0800FC6
:1025000038D107EB87029B4B03EB8203DA689B68A9
:102510009A4241D307EB8702964B03EB82035B7C25
:1025200013F04C0F38D1EFF31083B3FA83F35B0948
:10253000109372B6BFF35F8F00228F4B1A70109BFF
:102540008E4A55612BB101228B4B1A70BFF35F8FFE
:1025500062B6236B1193119B43F04F031193119BB0
:1025600023F001031193119B2363236B13F0010FDD
:10257000FBD17CE514237F4A03FB0723597C6FF3CF
:10258000C7115974DA689A607C4B5D61324600214C
:1025900040467B4B9847B4E7002E5BD0032E59D0C2
:1025A00007EB8702734B03EB82035B7C13F00C0F8A
:1025B00024D0236B1293129B43F04F031293129B70
:1025C00043F010031293129B2363236B13F0100F3D
:1025D000FBD0236B1393139B43F04F031393139B75
:1025E00023F001031393139B2363236B13F0010F59
:1025F000FBD100213046634B984738E50121304636
:10260000604B9847A0B1236B1493149B43F04F0386
:102610001493149B23F001031493149B2363236BE3
:1026200013F0010FFBD100213046564B98471EE5B1
:102630001423504A03FB07277A7C6FF3C7127A747E
:10264000FB68BB604D4B5D613246002140464C4B00
:102650009847D8E7012130464A4B9847236B15939A
:10266000159B43F04F031593159B23F0010315931E
:10267000159B2363236B13F0010FFBD1F7E40133A8
:102680001432042B00F08680DEB2DEF8181000FA57
:1026900003F52942F3D05F1E90469C0004F14024CC
:1026A00004F50024216B11F0420F7FF46DAE216B15
:1026B00011F0010F7FF4B2AE216B11F0080FDED0E4
:1026C000236B1693169B43F04F031693169B23F030
:1026D00008031693169B2363236B13F0080FFBD19B
:1026E000236B03F4E063B3F5807F3FF4C0AC236B4E
:1026F000BDE4224BDB6913F4005F50D01F4C4FF454
:1027000018532362636101201F4B98474FF4807375
:10271000236223614FF400632361A8E4174B4FF455
:1027200080721A625A614FF400521A614FF40072BB
:102730001A614FF480621A612320144B98470020DD
:10274000114B984793E43046114B984752E607EBFC
:10275000870C084B03EB8C03C3F80CE00028F2D085
:102760004FF0010B37E63046094B9847CA453FF614
:1027700041AE7CE4F00D0020340100200040084010
:102780000D1D4000211E4000191A40000D1640008A
:102790004D1D40004B4B9B6913F4005FA9D1494B81
:1027A0009B6913F4007F04D0464BDB6913F4007F70
:1027B000A4D1444B9B6913F4806F04D0414BDB6977
:1027C00013F4806F9AD13F4B9B6913F4807F04D040
:1027D0003C4BDB6913F4807FA0D13A4BDB6913F4E7
:1027E000805F3FF444AC374C4FF480532362364E45
:1027F000012211463046354DA8470222012106F13B
:102800001400A8470322012106F12800A847304BF5
:102810009847636823F001036360636823F0020351
:102820006360A36843F48073A360A36823F07F030D
:10283000A360236B1893189B43F04F031893189BC6
:1028400023F4074323F080031893189B43F40043B9
:102850001893189B23632246136B13F4004FFBD08D
:10286000184A136B1993199B43F04F031993199B43
:1028700043F400431993199B1363136B13F4004F34
:10288000FBD0EFF31083B3FA83F35B09179372B6AF
:10289000BFF35F8F00220F4B1A70179B0121094A6B
:1028A000116123B10B4B1970BFF35F8F62B60A4BF6
:1028B0009847044B4FF480721A614FF400621A611A
:1028C000FFF7D5BB00400840F00D00200D1D400073
:1028D000850A400034010020BD1A400010B582B0C6
:1028E000EFF31083B3FA83F35B09019372B6BFF37E
:1028F0005F8F0022144B1A70019C0120134B9847E4
:102900002320134B9847134B5A6F22F480725A6757
:102910005A6F42F400725A674FF480721A614FF492
:1029200000521A614FF400721A614FF480621A610A
:102930004FF400621A612CB10122034B1A70BFF3ED
:102940005F8F62B602B010BD34010020191A40003A
:10295000B91540000040084030B583B0EFF3108354
:10296000B3FA83F35B09009372B6BFF35F8F002461
:10297000274B1C70009D2320264B9847264B9847D9
:10298000264B502283F8232308225A6023462448EA
:102990009A00D11800EB8101497C1A4400EB8202B5
:1029A00001F083016FF3C71151740133032BEFD191
:1029B0004FF480201B4B984700221B4B1A701B4B77
:1029C0001B78FF2B22D0EFF31083B3FA83F35B095C
:1029D000019372B6BFF35F8F00220D4B1A700199FD
:1029E000124A13780133137029B10122084B1A706F
:1029F000BFF35F8F62B60E4B98472DB10122044B97
:102A00001A70BFF35F8F62B603B030BDFEE700BF40
:102A100034010020B91540006501400000E100E0EC
:102A2000F00D00207D164000E90D0020506D0020C3
:102A3000DD284000002070470D4B5A6822F001024B
:102A40005A609A6822F480729A60024670B198685F
:102A500020F07F0002F07F02104398609A6842F4F1
:102A600080729A605A6842F001025A60704700BF53
:102A700000400840054B5B6813F0010F1DBF034B7E
:102A8000986800F07F000020704700BF00400840B9
:102A9000024B1868C0F30A00704700BF00400840AE
:102AA00000207047014B986099817047CC6D0020E1
:102AB000F0B583B000F00F04032C67D8A30003F136
:102AC000402303F500231D6B15F4004F61D101F085
:102AD0000305012D50D0251FEDB2022D34BF4FF458
:102AE00000754025954258DB40B2661E06EB86070E
:102AF0002B4D05EB870505F11007B5F810E062F3E3
:102B0000090EA5F810E06A7C02F07F026FF345120F
:102B10006A74002835DB234EB56A012202FA04F4F8
:102B20002543B5623546AA6A1442FCD01D4DAA6AF7
:102B300022EA0404AC621A6B0192019A42F04F023D
:102B40000192019A22F4074222F0800201920028A9
:102B50004FEA012202F44072B4BF42F4044242F44C
:102B6000004201991143019101991963196B32EAED
:102B70000101FBD101200AE06CB1032CABD1002094
:102B800005E07A786FF383027A70C4E7002003B01F
:102B9000F0BD0020FBE70020F9E70020F7E700BFC9
:102BA000F00D00200040084000F00F02032A22D858
:102BB00000B583B0910001F1402101F500210B6BBC
:102BC0000193019B43F04F030193019B23F40043C6
:102BD0000193019B0B630B6B13F4004FFBD1501E51
:102BE00000EB80000121044B03EB8000034B98476E
:102BF00003B05DF804FB7047F00D00200D1D400090
:102C000000F00F00032815D8431E03EB83030A4A84
:102C100002EB83035B7C13F0200F09D10C30074BD0
:102C200053F8203013F0280F14BF01200020704704
:102C30000120704700207047F00D00200040084040
:102C400000F00F01032960D810B483B0EFF31083B4
:102C5000B3FA83F35B09019372B6BFF35F8F00226F
:102C60002D4B1A70019C10F0800F25D18A0002F1C3
:102C7000402202F50022136B0093009B43F04F03A8
:102C80000093009B43F020030093009B1363136B9E
:102C900013F0200FFBD0012303FA01F11F4B196140
:102CA000002C36D001201C4B1870BFF35F8F62B62A
:102CB00003B05DF8044B70474B1E01F10C0217483E
:102CC00050F8222012F0100F09D103EB83021448B0
:102CD00000EB8202527CC2F38102012AC6DD03EBC3
:102CE00083020F4B03EB82035A7C42F020025A749A
:102CF000012303FA01F1094B196144B10120064B8C
:102D00001870BFF35F8F62B6D2E7002070470120D2
:102D1000CEE70120CCE700BF34010020004008408E
:102D2000F00D002000F00F0003285ED830B583B00E
:102D3000441E04EB84022F4B03EB82035A7C6FF397
:102D400045125A74830003F1402303F500231A6BE4
:102D500012F0200F4BD01A6B0092009A42F04F02F3
:102D60000092009A22F020020092009A1A631A6BD5
:102D700012F0200FFBD1204DA96A012202FA00F0C7
:102D80000143A96229468A6A1042FCD01A498A6A1C
:102D900022EA000088621A6B0192019A42F04F0207
:102DA0000192019A22F008020192019A1A631A6BA9
:102DB00012F0080FFBD104EB84030E4A02EB8303ED
:102DC0005B7C13F0100F01D1012011E01146A2002D
:102DD000131901EB8303587C6FF3041058741444E7
:102DE00051F824309847012002E00020704701206C
:102DF00003B030BDF00D002000400840F0B583B0B6
:102E000000F00F07032F00F2A280BC0004F1402461
:102E100004F50024256B15F4004F00F09B807D1E07
:102E200005EB850E504E06EB8E06767C16F0200FD5
:102E300040F09280266B16F0200F40F08F80EFF369
:102E40001086B6FA86F67609009672B6BFF35F8FE3
:102E50004FF0000E454E86F800E0DDF800C005EBAF
:102E6000850E414E06EB8E06767C16F0100F0AD0CA
:102E7000BCF1000F74D001223C4B1A70BFF35F8F7E
:102E800062B6002064E005EB850E374E06EB8E0639
:102E900096F811E04EF0100E86F811E0BCF1000F2C
:102EA00007D04FF0010E314E86F800E0BFF35F8F80
:102EB00062B6DFF8B4C005EB8506B6000CEB060E73
:102EC000CEF80420CEF808300022CEF80C20089A64
:102ED0004CF8062011B9B3FA83F14909224AAE0031
:102EE000731902EB83035B7C61F38613354402EBB9
:102EF00085026FF3C7135374EFF31083B3FA83F3B0
:102F00005B09019372B6BFF35F8F0022174B1A70F3
:102F1000019D0123BB40164A136110F0800F07D1B9
:102F200005B30120114B1870BFF35F8F62B60FE03D
:102F3000236B13F0110FF3D1012138460D4B984745
:102F40000028EDD0002138460A4B9847E8E70020DA
:102F500003B0F0BD0020FBE70020F9E70020F7E711
:102F60000020F5E70120F3E7F00D002034010020F8
:102F700000400840211E4000F0B587B000F00F056A
:102F8000032D40D8EFF31083B3FA83F35B09059365
:102F900072B6BFF35F8F00224B4B1A70059B012462
:102FA000AC404A4A54612BB10122474B1A70BFF31F
:102FB0005F8F62B610F0800F27D1AE0006F1402679
:102FC00006F50026336B13F0420F06D0404F28461B
:102FD000B847336B13F0420FF9D13C4A936A23434D
:102FE0009362936A1C42FCD0384A936A23EA040431
:102FF0009462681E00EB80002A460121354B03EBEA
:103000008000354B984707B0F0BDAB0003F140237B
:1030100003F500231A6B12F0100F3AD04DB3032DB5
:1030200027D01A6B0192019A42F04F020192019A45
:1030300022F010020192019A1A631A6B12F0100F1B
:10304000FBD11A6B12F0100FFBD11A6B0292029A8D
:1030500042F04F020292029A42F010020292029A49
:103060001A631A6B12F0100FFBD01A6B12F0100FCC
:10307000FBD01A6B0392039A42F04F020392039A19
:1030800022F010020392039A1A631A6B12F0100FC7
:10309000FBD11A6B0492049A42F04F020492049AF4
:1030A00022F001020492049A1A631A6B12F0010FC3
:1030B000FBD16B1E03EB8302064B03EB82035A7CAE
:1030C0006FF383025A7488E73401002000400840FF
:1030D0004D1D4000F00D00200D1D400008B50A46B2
:1030E00001460248024B9847002008BD000A0E40E6
:1030F0008D13400008B5A0F58002C2F34F221121C4
:103100000348044B9847002818BF102008BD00BF93
:10311000000A0E40A91340002DE9F04F85B0009140
:103120000393A0F58003C3F34F2AC0F30807934627
:10313000002A4DD0DFF8A89009F5FE7511E0019A3C
:1031400001212448244B984700283ED1009B23446A
:1031500000930AF1010A1FFA8AFA0027BBEB040B5D
:1031600032D0C7F5007302931C465B4528BF5C460E
:10317000CDF804A00AF500534FEA43283A464146E9
:103180004846164EB0472246009909EB0700B04763
:103190003819029A121B04EB080192B239444844D0
:1031A000B047A9F10403A8F1040253F8041F42F840
:1031B000041FAB42F9D1039B002BC0D0019A03211D
:1031C0000448054B9847BFE7584605B0BDE8F08F67
:1031D0001046FAE7000A0E40A913400009554000C6
:1031E0002C0E00202DE9F04120F4FF5020F01F00AC
:1031F00021F4FF5121F01F0101F5FF541F3402B1EA
:10320000106003B11C60A0F58004640AA4B20C4DE8
:103210000D44C5F34F25A54210D9DFF82C800927AE
:10322000084E224639464046B047034618B9103486
:10323000A4B2AC42F5D31846BDE8F0810023FAE70A
:10324000FF1FC0FFA9134000000A0E40FEE7000068
:1032500000B583B0254B264A9A4210D0254B234A0D
:103260009A420CD2013B9B1A23F00303043313440C
:103270001F4951F8040B42F8040B9A42F9D11E4B36
:103280001E4A9A420AD2013B9B1A23F003030433DD
:103290001344002142F8041B9342FBD1184A194BF6
:1032A00023F07F039360EFF31083B3FA83F35B099A
:1032B000019372B6BFF35F8F0022134B1A7001990E
:1032C000124A136843F470031360BFF34F8FBFF3C8
:1032D0006F8F29B101220C4B1A70BFF35F8F62B65A
:1032E0000B4B98470B4B9847FEE700BF00000020B0
:1032F00010A64000F80B0020546E0020F80B0020B0
:1033000000ED00E0000040003401002088ED00E006
:10331000B9544000A14040003B4B1B6B03F003033A
:10332000012B1DD083B1022B36D0374B1B6B03F022
:103330007003702B5FD0344B1A6B3449C2F3021206
:103340000B68D3400B607047314B5B6913F0800F03
:1033500014BF4FF400424FF4FA422C4B1A60E4E7DA
:10336000294B1B6A13F0807F03D02A4A274B1A602F
:10337000DBE7294A254B1A60234B1B6A03F07003D5
:10338000102B05D0202BD0D1224A204B1A60CCE73D
:10339000224A1E4B1A60C8E71B4B1B6A13F0807F42
:1033A00016D01C4A194B1A60174B1B6B03F0030312
:1033B000022BBAD1144A916A926A1448C1F30A41A5
:1033C000036801FB0333D2B2B3FBF2F30360ACE753
:1033D000114A0E4B1A600C4B1B6A03F07003102B42
:1033E00005D0202BE0D10B4A084B1A60DCE70B4AD2
:1033F000064B1A60D8E7054A13680949A1FB031375
:103400005B081360704700BF00040E4038010020C5
:1034100010180E40001BB70000093D0000127A0092
:10342000ABAAAAAA124B984211D9124B984213D9AF
:10343000114B984214D9114B984215D9104B984210
:1034400094BF4FF004220F4A0F4B1A6070474FF0A1
:1034500080620D4B1A6070470C4A0B4B1A60704724
:103460000B4A094B1A6070470A4A074B1A607047AB
:10347000FF2C3101FF596202FF869303FFB3C4049E
:10348000FFE0F50500050004000A0E4000010004FD
:1034900000020004000300040A4B1B6853B1094BEF
:1034A0001B681A180849914208DB1046054A10604B
:1034B00018467047054A034B1A60F0E74FF0FF309B
:1034C000704700BF2C100020FCFF0120589E0020F8
:1034D000034B1B6A034A9BB21360012313717047AD
:1034E00000400B40E86D002010B500231A4601464D
:1034F0000448054CA047034A136913F0010FFBD0A1
:1035000010BD00BF008008404F19400070B584B066
:10351000044601214FF08040164B9847322606FBA7
:1035200004F4019400240294134B0393134B1C6086
:103530001C7101A94FF08040114B984711490C8133
:1035400001258D720B234B600E611923CB600D603A
:103550004FF080400C4B9847224629464FF0804060
:103560000A4B984729464FF08040094B984704B0D2
:1035700070BD00BF8D18400000D8B805E86D002070
:10358000F5164000F86D0020391740009B184000E8
:103590008318400038B5441E054D14F8010F20B1C2
:1035A000A8470028F9D1002038BD012038BD00BF50
:1035B000CD0840000FB410B5ADF5027D84AB53F8D3
:1035C000042B01934FF4007102A8054CA04702A8F8
:1035D000044B98470DF5027DBDE8104004B07047DC
:1035E000416C4000953540002DE9F041ADF5205D7E
:1035F00006210020344B984738B101463348344BFC
:1036000098470DF5205DBDE8F081324C21463248E7
:103610002F4B984700231A4630492046304CA0478C
:10362000044620B101462F48294B9847E9E72E4828
:10363000274B9847ADF104052A46012104F01F03EA
:1036400001FA03F342F8043F0134802CF6D12148FB
:10365000264B9847014618B125481D4B9847D0E79F
:1036600000234FF4007269461A48224CA0470146D5
:1036700018B11F48164B9847C3E71F48144B98478B
:103680001E4C1F4F124EDFF888803846B04754F862
:10369000042F55F8043F9A420DD14445F5D11948FD
:1036A0000B4B98470B48114B9847014638B11048CF
:1036B000074B9847A5E71448054B9847A1E71348DF
:1036C000034B98479DE700BFDD30400058A2400003
:1036D000B535400000C24E0078A24000FFC34E0046
:1036E000E53140009CA24000B4A24000F53040000B
:1036F000E8A24000193140000CA34000FCC14E007C
:1037000028A3400040A340002CA3400048A3400051
:10371000FCC34E002DE9F04FADF51C5D87B07B2357
:10372000ADF808300DF109055B4C0FCCCDF8090060
:103730006960AA60EB6020682861A388AB820DF104
:103740001E05564C0FCCCDF81E006960AA60EB60D8
:103750000DF12D05524C0FCCCDF82D006960AA60FB
:10376000EB60206828610DF141054E4C0FCCCDF87F
:1037700041006960AA60EB6020682861A288A37993
:10378000AA82AB753C23484A42F2C1610DF1570051
:10379000464DA84700F14F0442F210761E23444ADA
:1037A000311B02A82044A8470444424B424A311B23
:1037B00002A82044A847044440F2F2333F4A311B98
:1037C00002A82044A84704443D4A311B02AB181903
:1037D000A84704443B4B01934FF0000BB0462F46E3
:1037E000DFF8FCA02EE00135212D18D056F8042F6B
:1037F000AAFB0213D21A03EB52039B084A46A8EB1A
:10380000040102A82044B84704441F2DEBDC2E4AD3
:10381000A8EB040102AB1819B8470444E3E7BBF175
:103820003A0FD4BF294A2A4AA8EB040102AB18195F
:10383000B84704440BF1010B019B84330193BBF1A6
:103840003C0F0BD0234AA8EB040102AB1819B84770
:103850000444019E0025DFF88C90C7E742F2107601
:103860001B4A311B02AB1819104DA84704441A4FCC
:103870003A46311B02AB1819A84720443A46311A80
:1038800002AB1844A84702A8144B98470DF51C5DDD
:1038900007B0BDE8F08F00BF88A14000A0A14000A4
:1038A000B0A14000C8A14000E0A14000D9564000AE
:1038B000F0A1400000A240000CA2400024A2400061
:1038C00038A24000301000209CA140004CA24000D3
:1038D00050A2400044A2400054A240009535400050
:1038E0002549922448A24000092A21D930B4114D1B
:1038F00000EB40120A4455F822401C4445F822408F
:103900000D4C54F82220934204D800EB40120A4494
:1039100044F8223000EB40120A44084C54F82220AC
:10392000934204D300EB4010014444F8213030BCF2
:10393000704700BF34100020144E0020242F0020B8
:1039400008B54FF08040044B984710F0020F02D0AA
:103950000122024B1A6008BD97184000F86D002044
:1039600038B50F4C20460F4B984705464FF40041A1
:1039700020460D4B98470D4B0822C3F88020BFF31B
:103980004F8FBFF36F8FC3F88021102183F803138B
:103990001A604FF400312046054B9847284638BD41
:1039A00030180E4011194000D518400000E100E029
:1039B000E918400010B50D4C4FF4004120460C4B67
:1039C00098470C4B0822C3F88020BFF34F8FBFF3FA
:1039D0006F8FC3F88021102183F803131A604FF40E
:1039E00000312046044B984710BD00BF30180E40F0
:1039F000D518400000E100E0E918400008B5034890
:103A0000034B98470122034B1A7008BD30180E4033
:103A100025194000146D00202DE9F84F09209A4C1B
:103A2000A0470A20A0470B20A0470C20A0470D204C
:103A3000A047964B4FF000621A61C3F8A02094494A
:103A400004220A61C1F8A020924A4FF480671761EE
:103A5000C2F8A070904DD5F8144144F48054C5F8D4
:103A600014414FF480550D61C1F8A0504FF400444B
:103A70001461C2F8A0401F61C3F8A0704FF08044E9
:103A80001C61C3F8A04002241461C2F8A0404FF4A6
:103A9000003EC2F810E0C2F8A0E04FF400661E61DC
:103AA000C3F8A06001260E61C1F8A0600420106177
:103AB000C2F8A0004FF4000BC3F810B0C3F8A0B0D8
:103AC0004FF480161E61C3F8A0604FF4002010610F
:103AD000C2F8A0004FF0806AC3F810A0C3F8A0A0FD
:103AE0004FF480701061C2F8A0001761C2F8A07096
:103AF0004FF080771F61C3F8A0701D61C3F8A0501C
:103B00004FF48029C2F81090C2F8A0904FF40055ED
:103B10001D61C3F8A0501661C2F8A0604FF0805C30
:103B2000C3F810C0C3F8A0C080261661C2F8A06018
:103B3000C2F810C0C2F8A0C0C3F810E0C3F8A0E0FB
:103B40001761C2F8A0700C61C1F8A0404FF4804E1C
:103B5000C3F810E0C3F8A0E04FF0200CC2F810C08A
:103B6000C2F8A0C04FF48038C3F81080C3F8A0801A
:103B70004FF400171761C2F8A0704FF40077176177
:103B8000C2F8A070C2F810B0C2F8A0B0C2F810A07D
:103B9000C2F8A0A04FF0007AC3F810A0C3F8A0A00C
:103BA000C3F81090C3F8A090C2F81080C2F8A080AB
:103BB0004FF400201861C3F8A0004FF48008C2F849
:103BC0001080C2F8A0804FF080401061C2F8A000C1
:103BD0004FF00809C1F81090C1F8A090C2F810A0E9
:103BE000C2F8A0A0C3F810C0C3F8A0C04FF0006096
:103BF0001061C2F8A0001C61C3F8A0404FF400405F
:103C00001861C3F8A000C1F810E0C1F8A0E0C3F843
:103C10001080C3F8A0804FF000441C61C3F8A0409E
:103C20004FF0005EC3F810E0C3F8A0E00120186177
:103C3000C3F8A0001F61C3F8A0704FF48070186132
:103C4000C3F8A0001461C2F8A04040241461C2F877
:103C5000A04004201861C3F8A0001E61C3F8A06052
:103C6000C2F810E0C2F8A0E010221A61C3F8A02048
:103C70000D61C1F8A050C3F81090C3F8A0901C616A
:103C8000C3F8A040BDE8F88FB915400000140E40FD
:103C900000100E40000E0E4000020E402DE9F04FC5
:103CA0004C4A4FF4004353634B4B4FF480645C63C6
:103CB0004FF080415963022050634FF4003757633F
:103CC0004FF400615963454901254D63042555634F
:103CD0004FF4000BC3F834B04FF480155D634FF41C
:103CE000002CC2F834C04FF0806AC3F834A04FF4FF
:103CF0008076566354634FF080765E634FF4805451
:103D00005C634FF48029C2F834904FF400545C6334
:103D100055634FF0805EC3F834E080255563C2F8E8
:103D200034E05F63566348634FF480475F634FF04E
:103D3000200EC2F834E04FF48038C3F834804FF4DA
:103D4000001656634FF400765663C2F834B0C2F8DA
:103D500034A04FF0007AC3F834A0C3F83490C2F80E
:103D60003480C3F834C04FF4800CC2F834C04FF034
:103D7000804454634FF00808C1F83480C2F834A07E
:103D8000C3F834E04FF0006EC2F834E058634FF4EB
:103D9000004058634F63C3F834C04FF0004058638D
:103DA0004FF000575F6301245C635E634FF48074DF
:103DB0005C6350634020506304245C635D6357631D
:103DC00010225A634FF400524A63C3F83480586398
:103DD000BDE8F08F000E0E4000140E4000100E40A3
:103DE0002DE9F04F4C4A4FF4004313634B4B4FF413
:103DF00080641C634FF080411963022010634FF40C
:103E0000003717634FF400611963454901250D63BD
:103E1000042515634FF4000BC3F830B04FF4801540
:103E20001D634FF4002CC2F830C04FF0806AC3F815
:103E300030A04FF48076166314634FF080761E63D3
:103E40004FF480541C634FF48029C2F830904FF433
:103E500000541C6315634FF0805EC3F830E080258A
:103E60001563C2F830E01F63166308634FF48047A0
:103E70001F634FF0200EC2F830E04FF48038C3F8D3
:103E800030804FF4001616634FF400761663C2F8C4
:103E900030B0C2F830A04FF0007AC3F830A0C3F8B9
:103EA0003090C2F83080C3F830C04FF4800CC2F8B4
:103EB00030C04FF0804414634FF00808C1F83080E0
:103EC000C2F830A0C3F830E04FF0006EC2F830E026
:103ED00018634FF4004018630F63C3F830C04FF00D
:103EE000004018634FF000571F6301241C631E63DA
:103EF0004FF480741C6310634020106304241C631F
:103F00001D63176310221A634FF400520A63C3F84B
:103F100030801863BDE8F08F000E0E4000140E4094
:103F200000100E4008B5094B53F82020530903F543
:103F3000001303F207735B0202F01F02012000FA74
:103F400002F21A630846024B984708BD5801002048
:103F5000E934400010B504466431C8B2084B9847B4
:103F6000084B53F82420530903F5001303F2077399
:103F70005B0202F01F02012101FA02F21A6310BD76
:103F8000E93440005801002010B504463839C8B261
:103F9000084B9847084B53F82420530903F50013A6
:103FA00003F207735B0202F01F02012101FA02F221
:103FB0005A6310BDE934400058010020074B53F804
:103FC0002020530903F5001303F207735B0202F08C
:103FD0001F02012101FA02F21A6370475801002002
:103FE000074B53F82020530903F5001303F207731E
:103FF0005B0202F01F02012101FA02F25A637047CC
:104000005801002008B56430C0B2014B984708BD84
:10401000E934400008B53838C0B2014B984708BDB4
:10402000E934400008B50A20014B984708BD00BF9D
:10403000E9344000F8B56424054F064E064D20468D
:10404000B8473046A8470134E4B2852CF7D1F8BD13
:10405000E934400093760A000100002008B50248C8
:10406000024B984708BD00BFD09B4000B5354000CB
:1040700008B50248024B984708BD00BF149D400098
:10408000B535400008B50348034B98470122034B60
:104090001A7008BD00180E40D1184000196D00209C
:1040A0002DE9F04F93B00126994B1E70BFF35F8F3F
:1040B00062B6984B00251D705D709D70DD701D719E
:1040C0005E71954B9847954B9847954B9847954C03
:1040D0002046954B984702232360802323604FF0AE
:1040E00080732360636833436360636843F0100345
:1040F00063600E2120468D4B98472A46294620466C
:104100008B4B98473246294620468A4B98472A4689
:1041100029462046884B9847602229462046874BEF
:1041200098471023402229462046854FB8472660ED
:10413000844B9847844B98472420844B9847844B62
:104140001022C3F88420BFF34F8FBFF36F8FC3F8E3
:10415000842183F824235A607E487F4B984704F5D6
:10416000303420467D4B98470BA87D4B98470BA9D0
:1041700020467C4B98470AA87B4B98470AAA2946B9
:1041800020467A4B984765664FF40063E3666368A0
:1041900023F08F03636066613346754A072120462A
:1041A000744DA847E369E365636813F0800F01D19C
:1041B00008222260704B1A6B002AFCDA6F4C2046F2
:1041C0006F4B9847624D0226C5F88060BFF34F8F52
:1041D000BFF36F8F20466B4B9847C5F88061002472
:1041E00085F801432E60684B1C70684B9847214648
:1041F0002046674B98476748674B98474FF00062E7
:10420000664B1A634FF48062A3F5C0631A63644B74
:104210001B78F3B1634C4FF480552563564E6249C9
:104220003046624B9847624B9847DFF8C48140465E
:10423000604FB8474046B8470022594B1A700721D3
:1042400030465D4B984701235C4A137065635C4BB5
:1042500098475A4B1B78002B00F054810023574A93
:104260001370584B1B78002B00F0B482564B1B7810
:10427000002B00F07981554B1B78002B00F0E68075
:10428000534B9847414B984741F6CA20424B9847B9
:10429000DFF860914F4FDFF860B10026BFE00720E4
:1042A0003D4B98474C4B1B79DDF804B0002BFDD0FB
:1042B000CDF804B0484B1B68324602990020474EA7
:1042C000B0470134112C00F09980E6B20223CAF8FD
:1042D0000030434B18680028E1D0C317414AA0FBC7
:1042E000020102FB0311404A00230FF21C0CDCE91F
:1042F00000BC1BEB000B4CEB010C584661463B4DE0
:10430000A847254B9847CDE77F9FD50000000000C8
:1043100034010020506D0020B50140001D0F400009
:10432000790A4000008008402919400039194000EE
:1043300083194000A1194000BF194000D319400063
:10434000FB194000B5394000193A4000B91540004A
:1043500000E100E0A08601000D3540002913400077
:10436000291140006511400059114000F91040002A
:10437000D13440007112400000400B4000180E4044
:10438000AD184000BF184000176D00209D3C400054
:10439000253F4000DC0B01000100002000140E400E
:1043A000146D002000100E403F8000DFC912400055
:1043B0001537400095354000391240004401002077
:1043C000613940003C010020086D0020076D00208D
:1043D00025404000104E0020E86D0020E9384000E4
:1043E0004001002000D8B805809FD500A9514000A9
:1043F00020A0400030100020202F0020DDF804B065
:1044000046460298984B98474FF00063974A1363CB
:1044100040F25710964B98470136212E72D0F3B2D6
:104420000293002449F8044F924A47F8042F4BF8AE
:10443000044F1846904B98474FF000638B4A5363E4
:10444000DFF848A2CDF804B0B0463EE78B4B984762
:104450008B4B984741F6CA20854B9847894F8A4E27
:10446000DFF87C821E24002547F8045B814B46F868
:10447000043B48F8045B20467F4B98474FF00063AD
:104480007A4A53634FF0020AA146EBB201937F4B85
:10449000C3F800A07E4B1868002861D0C3177D4A7E
:1044A000A0FB020102FB03117B4A00230FF2B01CA8
:1044B000DCE900BC1BEB000B4CEB010C58466146E1
:1044C000764CA0476A4B9847754B1B79002BFDD063
:1044D000734B1B68019A49460020724CA047013576
:1044E000112DD2D14C4648465F4B98474FF00063A0
:1044F0005E4A136340F257105D4B98470134E4B2B3
:10450000212CB0D1684B984728B1684B9847684B2D
:104510001860684B9847664B1B68002B3FF477AEDA
:1045200065495A48654B98474FF400316448654BDC
:104530009847654B1B78002B40F071824FF4003197
:104540005F48604B9847614B984701225E4B1A7059
:1045500007214E485E4B98470022554B1A6056E69D
:104560000720434B9847AFE7444B9847444B984745
:1045700041F6CA203E4B9847564B0693564B07933D
:10458000564B089300230993DFF814B112E107207A
:10459000B8479BF80430002BFDD0DBF800302A46EA
:1045A000029901983F4DA8470134112C1DD0E5B266
:1045B000364B1E60364B18680028E8D0C317354AC2
:1045C000A0FB020102FB0311334A00230FF2900A01
:1045D000DAE9009A19EB00094AEB010A484651460C
:1045E000DFF8B8A0D047B847D3E702981E4B9847EA
:1045F0004FF000631D4A136340F25710B84708F1AB
:104600000108B8F11E0F1DD05FFA88F31C46029313
:1046100040F25710B8472046174B98470024039B99
:1046200043F8044F0393134B049A42F8043F049257
:10463000059B43F8044F05934FF000630B4A536307
:104640000226B4E70E4B9847069B03F1780A079BB6
:1046500078330293089B783303931E2681E000BFD2
:104660007F9FD500000000001540400000140E4060
:1046700001000020A08601000540400025404000C8
:104680009D3C4000AC1000208C4E002000400B40B0
:104690004001002000D8B805809FD500A9514000F6
:1046A000E86D0020E9384000C50640009107400051
:1046B0000C6D0020CD0840003F8000DFC912400093
:1046C00030180E40FD184000166D00205D4040007F
:1046D0003912400030100020104E0020202F002002
:1046E0009C2F00200720924B98479BF80430002B0A
:1046F000FDD0DBF800302A46314601988D4DA847A1
:104700000134112C1ED0E5B28B4B1F608B4B186807
:104710000028E7D0C3178A4AA0FB020102FB03115D
:10472000884A00230FF20029D9E9008918EB000814
:1047300049EB010940464946DFF85892C8477C4B8F
:104740009847D2E73046804B98474FF000637F4A46
:10475000136340F25710764B98470136F6B2212E7C
:1047600015D000244AF8044F029B1A46784B42F8B1
:10477000043F0292039B43F8044F03933046754B6A
:1047800098474FF00063714A53630227BBE740F23A
:10479000AE20674B9847099B01330993069A8432F0
:1047A0000692079A84320792089A843208923C2B28
:1047B0003FF4A8AE9DF8243001931846664B984705
:1047C000089B0593079B0493069B03934FF00008F7
:1047D000574F19E7614B1B78002B77D0604C22783C
:1047E000604D2978013201315F48604B9847604B3A
:1047F0009847604B984741F6CA204D4EB04741F666
:10480000CA20B0472878217800EB40130B440024DD
:10481000594A42F823404E4D584A42F82350584ACC
:1048200042F82340574B98474FF00063474A536381
:10483000414F0226544D15E007203D4B98472FE08D
:10484000002BFDD0474B93F80090454B93F800A008
:104850002B68424651464846DFF8D880C0470134AD
:10486000112C1FD05FFA84F83E60344B1868002882
:10487000E2D0C317324AA0FB020102FB0311314A06
:1048800000230FF2A40ADAE9009A19EB00094AEBB7
:10489000010A48465146DFF8FC90C847244B984728
:1048A0002B79CDE7394B1B785BB151464846384BE5
:1048B00098474FF00063254A136341F6CA201C4B0A
:1048C000984740F257101A4B98471BE6284B9847D9
:1048D000284B984741F6CA20154CA04741F6CA20FC
:1048E000A0471F4C20781E30C0B21A4B984723783F
:1048F0001E330024204A42F8234015491F4A42F83B
:1049000023101F4A42F823404FF000630F4A5363BD
:10491000DFF8248002271C4E4EE00720044B984706
:1049200068E000BFAFF300807F9FD500000000006B
:1049300001000020E938400000400B404001002009
:1049400000D8B805809FD5001540400000140E40E7
:10495000A086010005404000BD3F4000086D0020DA
:10496000176D0020186D0020549D4000B5354000A3
:10497000254040009D3C400034100020144E002093
:10498000242F0020553F4000E86D002054010020F6
:10499000893F4000A9514000002BFDD0964B1D7867
:1049A0001E35EDB233684A4629460020DFF8F09202
:1049B000C8470134112C1FD05FFA84F9C8F8007081
:1049C0008E4B18680028A8D0C3178D4AA0FB02019F
:1049D00002FB03118B4A00230FF2142BDBE900AB1F
:1049E0001AEB000A4BEB010B50465946864DA8477F
:1049F000864B98473379CFE7854B1B7853B12846D0
:104A0000844B98474FF00063834A136341F6CA20F2
:104A10007E4B984740F257107C4B984772E57F4B8E
:104A20001B78002B30D07E4B1A68A2F13003092B83
:104A300006D87C490B78303A7B48C25401330B705E
:104A4000784B1B78062B7FF483AD774A941D0020AA
:104A5000764B774912F8015B03FB050081FB036588
:104A6000DB17C3EBA5039442F4D1724A1360724B77
:104A70001860724B98470022684B1A704FF400314F
:104A80006F48704B984763E56F4B1B78002B4AD0FB
:104A9000634B1B68A3F13002092A3FF659AD6B4AFC
:104AA00012784AB1303B03EB83035B00684A136022
:104AB0000022664B1A704BE50121644A1170303BAD
:104AC000644A1360644A12787AB1614A1068013806
:104AD0000344D8B2614B1870614B984700225E4B7B
:104AE0001A706048604B984732E5594A106801389F
:104AF0000344D8B2404C20705C4B98472278574B07
:104B00001978013201315A48574B98474FF4003118
:104B10004B484C4B98470023564A1370564A137023
:104B2000494A137014E5554B1B78002B00F02A817D
:104B30003B4B1B6823F02002582A0FD100234D4A1B
:104B400013704D4A13704D4A13704FF400313C48B6
:104B50003C4B98474A48444B9847F9E4502A0CD1BB
:104B60004848414B98470123474A1370374A13700E
:104B7000404A1370414A1370EAE44C2A0DD141486F
:104B8000394B98470022404B1A7001232F4A13706B
:104B9000384A1370394A1370DAE4432A06D13B4885
:104BA000314B984700222C4B1A70D1E4522A06D17F
:104BB00037482D4B98470122274B1A70C8E4532AD7
:104BC00070D1314B1B7853B13248274B98474FF087
:104BD0000063114A13633048234B9847B8E42F48C9
:104BE000214B98474FF000630B4A5363F3E700BF34
:104BF0007F9FD50000000000176D002040010020BD
:104C000000D8B805809FD500A951400001000020C0
:104C1000540100201540400000140E40066D002095
:104C20000C6D0020046D002048010020A0860100CA
:104C30006766666650010020106D00200D3540004B
:104C400030180E40E918400030100020056D00209B
:104C5000F46D0020E46D002048020020186D002053
:104C6000BD3F4000709D4000B5354000054040000C
:104C70008C9D4000156D0020166D00203110002025
:104C8000A49D4000BC9D40004E010020DC9D4000E2
:104C9000FC9D40001C9E4000349E4000289E400029
:104CA000E9384000A3F13002092A3FF651ACA84A86
:104CB00012784AB1303B03EB83035B00A54A1360D3
:104CC0000022A34B1A7043E40121A14A1170303B2A
:104CD000A14A13609F4A116801391944C9B29F4B18
:104CE00019709F4B1B78002B27D09E4B1B789BB1D4
:104CF000FF290BD001319C489C4B9847974B187863
:104D00009B4B98479B48994B984721E49A48974B6F
:104D100098479A4B9847F5E7FF2908D00131984802
:104D2000924B98478D4B1878964B9847EAE79648F0
:104D30008E4B9847954B9847E4E78A4B1B7883B195
:104D4000FF2908D001319248884B9847834B187847
:104D5000904B9847D6E79048844B98478F4B98479D
:104D6000D0E7FF2908D001318D48804B98477B4B15
:104D700018788C4B9847C5E78B487C4B98478B4BF2
:104D80009847BFE78A4B1B78002B40F0A281894BE4
:104D90001B68413B372B3FF6DBAB01A252F823F0F7
:104DA000814E4000D14E4000E94E4000335040005B
:104DB00051454000FD4F40005145400051454000E5
:104DC000514540005145400051454000314F4000A1
:104DD00051454000514540005145400017504000AA
:104DE000514540008D504000074F40005145400064
:104DF000A94E40005B50400051454000BF5040006C
:104E0000514540005145400051454000514540004A
:104E1000514540005145400051454000514540003A
:104E2000814E4000D14E4000E94E400033504000DA
:104E300051454000FD4F4000514540005145400064
:104E4000514540005145400051454000314F400020
:104E50005145400051454000514540001750400029
:104E6000514540008D504000074F400051454000E3
:104E7000A94E40005B50400051454000BF504000EB
:104E800001224D4B1A7000234C4A13704C4A137088
:104E90004C4A13704C48354B98474FF400314B48FF
:104EA0004B4B9847FFF754BB0123434A1370002133
:104EB000424A1170424A1370424A137045482B4BC4
:104EC00098474FF400314148414B9847FFF740BBAA
:104ED0004148264B98474FF400313C483C4B98479B
:104EE0003E4B9847FFF734BB0023334A1370344AD4
:104EF00013703B481D4B984701222D4B1A70394BBC
:104F00009847FFF725BB00222B4B1A700124104B4A
:104F10001C70354B1C702A4B1C70114B1C70334895
:104F2000124DA8473248A847214B1C70FFF710BB11
:104F300030480E4B984700220A4B1A700123044A4E
:104F400013701B4A13702C4A1370FFF701BB00BF8C
:104F5000056D0020F46D0020E46D0020176D002029
:104F6000480200204E010020609E4000B535400000
:104F7000BD3F4000349E4000749E4000E13D400033
:104F8000849E4000E13F4000989E40009D3C4000D0
:104F9000AC9E400005404000C09E400035404000AF
:104FA000D49E400015404000E89E4000254040004F
:104FB000156D00200C6D00203C010020166D0020B6
:104FC000086D0020076D0020FC9E400030180E4048
:104FD000E9184000089F4000189F4000E935400054
:104FE000389F40007140400030100020509F40002A
:104FF000649F4000809F4000311000204C484D4B82
:10500000984700224C4B1A7001234C4A13704C4AAB
:105010001370FFF79DBA4B48464B984701234A4A05
:1050200013704A4A1370454A1370494A1370FFF7C8
:105030008FBA0023474A1370454A137046483D4CC7
:10504000A0474648A0474648464B98474FF4003192
:105050004548464B9847FFF77BBA454C237883F089
:105060000103237000223B4B1A704FF400313E487D
:105070003E4B9847237823B13E482E4B9847FFF785
:1050800067BA3D482B4B9847FFF762BA3B4C2378F1
:1050900083F00103237000222E4B1A704FF400316D
:1050A0003148324B9847237823B13548214B9847F4
:1050B000FFF74EBA33481F4B9847FFF749BA3248BB
:1050C0001C4B98474FF400312748284B9847FFF76F
:1050D0003FBA2E4B1B68A3F13102032A18D813469E
:1050E0002B4A137000242B4B1C701A4B1C704FF46E
:1050F00000311D481D4B9847104B1C70264B98479C
:10510000264B98474FF00063254A1363FFF720BAF8
:105110000024104B1C704FF400311348134B984778
:10512000064B1C701F48034B9847FFF711BA00BF8E
:10513000AC9F4000B5354000046D0020156D002087
:10514000066D0020D49F40004E010020056D002018
:1051500031100020166D0020FC9F400024A040006C
:1051600025E539010100002030180E40E918400003
:10517000086D002054A0400068A0400054010020A9
:1051800084A0400080A0400094A040000C6D00204E
:10519000176D0020186D0020254040009D3C400008
:1051A00000140E40FCA0400053B94AB9002908BFC2
:1051B00000281CBF4FF0FF314FF0FF3000F07AB9EC
:1051C000ADF1080C6DE904CE00F006F8DDF804E05E
:1051D000DDE9022304B070472DE9F0478C460D4607
:1051E0000446089E002B51D18A4217466DD9B2FA67
:1051F00082FEBEF1000F0BD0CEF1200C01FA0EF5AD
:1052000020FA0CFC02FA0EF74CEA050C00FA0EF438
:105210004FEA174A250CBCFBFAF81FFA87F90AFB7C
:1052200018CC45EA0C4508FB09F3AB420AD9ED1945
:1052300008F1FF3280F02381AB4240F22081A8F1D7
:1052400002083D44ED1AA4B2B5FBFAF00AFB105572
:1052500044EA054400FB09F9A14509D9E41900F124
:10526000FF3380F00A81A14540F2078102383C44B7
:10527000A4EB090440EA08400021002E61D024FA82
:105280000EF4002334607360BDE8F0878B4207D9C9
:10529000002E54D0002186E821000846BDE8F087A2
:1052A000B3FA83F1002940F08E80AB4202D38242F0
:1052B00000F2FA80841A65EB03050120AC46002E4B
:1052C0003FD086E81010BDE8F08712B90127B7FB80
:1052D000F2F7B7FA87FEBEF1000F34D1EB1B3A0CA0
:1052E0001FFA87FC0121B3FBF2F8250C02FB1833EF
:1052F00045EA03450CFB08F3AB4207D9ED1908F169
:10530000FF3002D2AB4200F2D1808046ED1AA3B248
:10531000B5FBF2F002FB105543EA05440CFB00FC20
:10532000A44507D9E41900F1FF3302D2A44500F2E5
:10533000B8801846A4EB0C0440EA08409DE73146CB
:105340003046BDE8F087CEF1200405FA0EF307FAE7
:105350000EF720FA04F83A0C25FA04F448EA030898
:10536000B4FBF2F14FEA184502FB11441FFA87FC27
:1053700045EA044501FB0CF3AB4200FA0EF409D9EF
:10538000ED1901F1FF3080F08A80AB4240F2878056
:1053900002393D44EB1A1FFA88F5B3FBF2F002FB29
:1053A000103345EA034500FB0CF3AB4207D9ED1976
:1053B00000F1FF386FD2AB426DD902383D44EB1A91
:1053C00040EA01418FE7C1F1200722FA07F88B403C
:1053D00005FA01F448EA030320FA07FE4FEA134CEA
:1053E000FD404EEA040EB5FBFCF94FEA1E440CFBEF
:1053F00019551FFA83F844EA054509FB08F4AC4245
:1054000002FA01F200FA01FA08D9ED1809F1FF30A9
:1054100043D2AC4241D9A9F102091D442D1B1FFA08
:105420008EFEB5FBFCF00CFB10554EEA054400FB6C
:1054300008F8A04507D9E41800F1FF3529D2A045A6
:1054400027D902381C4440EA0940A4EB0804A0FB19
:1054500002894C45C6464D4615D312D056B1BAEB1B
:105460000E0364EB050404FA07F7CB401F43CC405E
:10547000376074600021BDE8F0871846F8E6904672
:10548000E0E6C245EAD2B8EB020E69EB030501384B
:10549000E4E72846D7E7404691E78146BEE7014664
:1054A00078E702383C4445E7084608E7A8F10208D7
:1054B0003D442BE7704700BF70B50F4E0F4D761B74
:1054C000B61018BF002405D0013455F8043B9847A6
:1054D000A642F9D10A4E0B4D761B05F083F8B610A3
:1054E00018BF002406D0013455F8043B9847A64263
:1054F000F9D170BD70BD00BFF0A54000F0A540001F
:10550000F8A54000F0A54000844641EA000313F0EE
:1055100003036DD1403A41D351F8043B40F8043BBA
:1055200051F8043B40F8043B51F8043B40F8043B7D
:1055300051F8043B40F8043B51F8043B40F8043B6D
:1055400051F8043B40F8043B51F8043B40F8043B5D
:1055500051F8043B40F8043B51F8043B40F8043B4D
:1055600051F8043B40F8043B51F8043B40F8043B3D
:1055700051F8043B40F8043B51F8043B40F8043B2D
:1055800051F8043B40F8043B51F8043B40F8043B1D
:1055900051F8043B40F8043B403ABDD2303211D3BD
:1055A00051F8043B40F8043B51F8043B40F8043BFD
:1055B00051F8043B40F8043B51F8043B40F8043BED
:1055C000103AEDD20C3205D351F8043B40F8043BBD
:1055D000043AF9D2043208D0D2071CBF11F8013BBB
:1055E00000F8013B01D30B8803806046704700BF81
:1055F000082A13D38B078DD010F003038AD0C3F190
:105600000403D21ADB071CBF11F8013B00F8013B71
:1056100080D331F8023B20F8023B7BE7043AD9D330
:10562000013A11F8013B00F8013BF9D20B78037005
:105630004B7843708B7883706046704770B48607F0
:1056400046D0541E002A41D0CAB2034602E014F1EB
:10565000FF343BD303F8012B9D07F8D1032C2ED93F
:10566000CDB245EA05250F2C45EA054519D903F1C8
:1056700010022646103E0F2E42F8105C42F80C5CD9
:1056800042F8085C42F8045C02F11002F2D8A4F17E
:10569000100222F00F0204F00F041032032C134406
:1056A0000DD91E462246043A032A46F8045BFAD86E
:1056B000221F22F003020432134404F003042CB12D
:1056C000C9B21C4403F8011B9C42FBD170BC70475B
:1056D00014460346C2E700BF0CB4F0B5234B0C1EC2
:1056E0009DB01D683DDB4FF4027302900690ADF84B
:1056F000143023AE17D0013C229A049433464FF65F
:10570000FF7702A9284607940196ADF8167000F0BD
:105710002FF8421C1BDB029B00221A701DB0BDE853
:10572000F04002B0704733464FF6FF77229A049458
:1057300002A9284607940196ADF8167000F018F8F3
:10574000431C07DB1DB0BDE8F04002B070478B235F
:105750002B60E0E78B232B601DB0BDE8F04002B06A
:1057600070478B232B604FF0FF30EBE74C0200209B
:105770002DE9F04FC3B00C460B9192460F930C905D
:1057800002F056FA03681A93184603F099F8A389B1
:105790001990190603D52369002B01F0038000231B
:1057A0000DF1C80913931593149327932693189317
:1057B0001B930993CDF89490C846169317939AF8C3
:1057C00000305446E3B1252B02D119E0252B03D03C
:1057D00014F8013F002BF9D1A4EB0A0585B1269BF3
:1057E000279AC8F800A001332A44072BC8F80450B0
:1057F000279226937FDC08F10808099B2B44099324
:105800002378002B7FD000231A468DF87730194675
:105810000D939B464FF0FF3063780A9004F1010A24
:105820000AF1010AA3F12000582800F2C183DFE841
:1058300010F03802BF03BF034002BF03BF03BF0322
:10584000BF03BF03BF0345020302BF035D006B023A
:10585000BF0386029D039D039D039D039D039D033E
:105860009D039D039D03BF03BF03BF03BF03BF038E
:10587000BF03BF03BF03BF03BF0337035703BF0308
:105880005703BF03BF03BF03BF039803BF03BF0397
:10589000AD03BF03BF03BF03BF03BF035902BF0371
:1058A000BF031E03BF03BF03BF03BF03BF03BF0389
:1058B000BF03BF03BF03BF03C602DB025703570387
:1058C00057038B02DB02BF03BF039002BF039D029D
:1058D000CC01B4020802BF03E101BF037E00BF0395
:1058E000BF030D020D980F9340420D904BF0040B37
:1058F0009AF8003094E725AA0B990C9803F04EF81B
:1059000040B9C84679E7279B23B10C980B9925AA83
:1059100003F044F80B9B9B8913F0400F099B18BFC1
:105920004FF0FF330993099843B0BDE8F08F1BF0A7
:10593000200F119340F0DD810F9A1BF0100F1346DA
:1059400040F06E851BF0400F00F06A851488043229
:10595000002501230F9200278DF877700A994A1CC1
:1059600000F065822BF08002079254EA050240F0B5
:105970006482002940F03C84002B40F0D7841BF067
:1059800001030E9300F0048642AE302306F8413D39
:105990000A9B0E9A9342B8BF1346089300231293B2
:1059A00017B1089B01330893079B13F00203109370
:1059B00002D0089B02330893079B13F0840540F044
:1059C0000E830D9B089AA3EB020BBBF1000F40F373
:1059D0000683BBF1100F279C269A29DD43462146FA
:1059E000A84610270C9C0B9D06E0ABF1100BBBF1F9
:1059F000100F03F1080318DD0132B7482692103169
:105A0000072A279183E88100EFDD25AA2946204651
:105A100002F0C4FF00287FF47DAFABF1100BBBF1A7
:105A2000100F2799269A4B46E6DC45460C469846C9
:105A30000132A94B26925C44072A279488E808087B
:105A400000F398849DF8777008F1080877B1269BD9
:105A5000013301340DF177010122072B279426939E
:105A600088E8060000F3DB8308F10808109B6BB19F
:105A7000269B013302341EA90222072B279426936A
:105A800088E8060000F3D68308F10808802D00F0AE
:105A900015830A9B0E9A9F1A002F36DD102F269B26
:105AA0008E4D27DD42462146B0464FF0100B2E4664
:105AB0000C9C0B9D04E0103F102F02F1080215DD35
:105AC00001331031072B2791269382E84008F2DD3D
:105AD00025AA2946204602F061FF00287FF41AAF6C
